:100000000C9468000C9490000C9490000C94900058
:100010000C9490000C9490000C9490000C94900020
:100020000C9490000C9490000C9490000C94900010
:100030000C9490000C9490000C9490000C94900000
:100040000C94BE030C9490000C942E040C940804A1
:100050000C9490000C9490000C9490000C949000E0
:100060000C9490000C9490000001020304050A0B0C
:100070000C0D0E0F00000000240027002A000000D5
:100080000000250028002B000000000023002600AF
:10009000290004040404040404040202020202020B
:1000A000030303030303010204081020408001023C
:1000B00004081020010204081020000000080002BB
:1000C00001000003040700000000000000006004BD
:1000D00011241FBECFEFD8E0DEBFCDBF21E0A8E1E5
:1000E000B1E001C01D92AE3DB207E1F711E0A0E022
:1000F000B1E0E0EBFEE002C005900D92A831B1073F
:10010000D9F710E0C8E6D0E004C02197FE010E94B4
:100110005007C736D107C9F70E94B0040C945607A0
:100120000C940000833081F028F4813099F0823003
:10013000A9F008958730A9F08830C9F08430B1F46F
:10014000809180008F7D03C0809180008F778093A5
:100150008000089584B58F7784BD089584B58F7D20
:10016000FBCF8091B0008F778093B000089580918D
:10017000B0008F7DF9CFCF93DF93282F30E0F901C6
:10018000E654FF4F8491F901EA55FF4FD491F901EC
:10019000EE56FF4FC491CC23A1F081110E94920032
:1001A000EC2FF0E0EE0FFF1FE857FF4FA591B49141
:1001B000EC91ED2381E090E009F480E0DF91CF91B4
:1001C000089580E090E0FACF1F93CF93DF93282F1C
:1001D00030E0F901E654FF4F8491F901EA55FF4FF1
:1001E000D491F901EE56FF4FC491CC23A9F0162FFC
:1001F00081110E949200EC2FF0E0EE0FFF1FE258F9
:10020000FF4FA591B4918FB7F894EC91111108C0EC
:10021000D095DE23DC938FBFDF91CF911F9108959E
:10022000DE2BF8CF682F8091C3010E94E4008091FB
:10023000DA019091DB018230910538F0880F991F27
:10024000880F991F05970197F1F7089581E00C94A5
:100250001201CF93DF9390E0FC01EA55FF4F249108
:100260008E569F4FFC0184918823D1F090E0880F37
:10027000991FFC01EC58FF4FA591B491FC01E25885
:10028000FF4FC591D491623071F49FB7F8943C91BF
:10029000822F809583238C93E8812E2B28839FBF08
:1002A000DF91CF9108958FB7F894EC912E2B2C937A
:1002B0008FBFF6CF3FB7F89480911A0190911B0140
:1002C000A0911C01B0911D0126B5A89B05C02F3F30
:1002D00019F00196A11DB11D3FBFBA2FA92F982F6C
:1002E0008827BC01CD01620F711D811D911D42E067
:1002F000660F771F881F991F4A95D1F708958F922F
:100300009F92AF92BF92CF92DF92EF92FF924B01FA
:100310005C010E945A016B017C010E945A016C1918
:100320007D098E099F09683E734081059105A8F3F8
:1003300021E0821A9108A108B10888EEC80E83E076
:10034000D81EE11CF11C81149104A104B10429F709
:10035000FF90EF90DF90CF90BF90AF909F908F90E5
:100360000895AF92BF92CF92DF92EF92FF920F93D8
:100370001F93CF93DF936C017B018B01040F151F3B
:10038000EB015E01AE18BF08C017D10759F06991A3
:10039000D601ED91FC910190F081E02DC601099507
:1003A000892B79F7C501DF91CF911F910F91FF90B4
:1003B000EF90DF90CF90BF90AF900895FC01538DE8
:1003C000448D252F30E0842F90E0821B930B54172F
:1003D00010F0CF96089501970895FC01918D828DBC
:1003E000981761F0A28DAE0FBF2FB11D5D968C9155
:1003F000928D9F5F9F73928F90E008958FEF9FEF94
:100400000895FC01918D828D981731F0828DE80F4F
:10041000F11D858D90E008958FEF9FEF0895FC0109
:10042000918D228D892F90E0805C9F4F821B9109D6
:100430008F739927089582E291E00E940F0221E0D4
:10044000892B09F420E0822F089580E090E0892B29
:1004500029F00E941B0281110C9400000895FC01F8
:10046000A48DA80FB92FB11DA35ABF4F2C91848D15
:1004700090E001968F739927848FA689B7892C9372
:10048000A089B1898C91837080648C93938D848DC5
:10049000981306C00288F389E02D80818F7D8083C8
:1004A0000895EF92FF920F931F93CF93DF93EC0188
:1004B00081E0888F9B8D8C8D98131AC0E889F9890B
:1004C000808185FF15C09FB7F894EE89FF8960830E
:1004D000E889F98980818370806480839FBF81E08F
:1004E00090E0DF91CF911F910F91FF90EF900895D1
:1004F000F62E0B8D10E00F5F1F4F0F731127E02EAC
:100500008C8D8E110CC00FB607FCFACFE889F989E3
:10051000808185FFF5CFCE010E942F02F1CFEB8DB8
:10052000EC0FFD2FF11DE35AFF4FF0829FB7F894B7
:100530000B8FEA89FB8980818062CFCFCF93DF93D5
:10054000EC01888D8823B9F0AA89BB89E889F989EB
:100550008C9185FD03C0808186FD0DC00FB607FC20
:10056000F7CF8C9185FFF2CF808185FFEDCFCE0153
:100570000E942F02E9CFDF91CF9108958EBD000038
:100580000DB407FEFDCF8EB508950F931F93009114
:10059000C4011091C5012091C6013091C70140E00E
:1005A00052E16AE770E080E0041715072607370775
:1005B00040F476956795579547958F5F8630A1F7FC
:1005C00087E0982F906A9695809581709CBD8DBD2F
:1005D00080E01F910F910C941201CF93C82F0E94BD
:1005E000C5028C2F80620E94BE028093C801CF9109
:1005F0000C942601CF93C82F0E94C5028C2F0E9415
:10060000BE028093C8018FEF0E94BE02C82F0E94D5
:1006100026018C2FCF9108950F931F93CF93182FFE
:10062000C62F0E94C502812F80620E94BE02809365
:10063000C80100E011E0C15030F0F80181918F0154
:100640000E94BE02F8CFCF911F910F910C9426010A
:100650000E94C50280E50E94BE028093C80183E724
:100660000E94BE020C942601CF93DF93D82FC62F91
:100670000E94C5028D2F80620E94BE028093C80135
:100680008C2F0E94BE02DF91CF910C942601CF9255
:10069000DF92EF92FF92CF93DF937C018091D401A0
:1006A000C0E0D1E0811106C0C091C901DC2FC111A9
:1006B000D1E0CD1B0E94C50280EA0E94BE02809359
:1006C000C801DD2321F0F70180810E94BE02C150E4
:1006D00080E0CF3FD1F70E9426018091C201909126
:1006E000C301891719F061E00E94E4008FB7F89404
:1006F000C0901E01D0901F01E0902001F0902101D8
:100700008FBF8FEF0E94ED028091C8018073F9F4D2
:100710002FB7F89480911E0190911F01A0912001A4
:10072000B09121012FBF8C199D09AE09BF098036F8
:100730009105A105B10528F381E08093D50180E002
:10074000DF91CF91FF90EF90DF90CF90089580914F
:10075000C2019091C301891719F060E00E94E40082
:1007600060E787E00E9434038091C80184FF04C0E1
:1007700081EE0E94ED02E3CF81E0E2CF1F920F9263
:100780000FB60F9211242F933F938F939F93AF93A4
:10079000BF9380911E0190911F01A0912001B09103
:1007A00021013091190123E0230F2D3758F50196CF
:1007B000A11DB11D2093190180931E0190931F016B
:1007C000A0932001B093210180911A0190911B0107
:1007D000A0911C01B0911D010196A11DB11D809336
:1007E0001A0190931B01A0931C01B0931D01BF91AE
:1007F000AF919F918F913F912F910F900FBE0F90CE
:100800001F90189526E8230F0296A11DB11DD2CF87
:100810001F920F920FB60F9211242F933F934F9375
:100820005F936F937F938F939F93AF93BF93EF9358
:10083000FF9382E291E00E942F02FF91EF91BF911E
:10084000AF919F918F917F916F915F914F913F9168
:100850002F910F900FBE0F901F9018951F920F921F
:100860000FB60F9211242F938F939F93EF93FF93C3
:10087000E0913201F09133018081E0913801F091F3
:10088000390182FD1BC0908180913B018F5F8F7386
:1008900020913C01821741F0E0913B01F0E0EE5DD8
:1008A000FE4F958F80933B01FF91EF919F918F9128
:1008B0002F910F900FBE0F901F9018958081F4CF4D
:1008C000E2E2F1E01382128288EE93E0A0E0B0E071
:1008D00084839583A683B7838AE091E091838083A4
:1008E00085EC90E09587848784EC90E097878687F5
:1008F00080EC90E0918B808B81EC90E0938B828BED
:1009000082EC90E0958B848B86EC90E0978B868BC5
:10091000118E128E138E148EE0ECF1E089E082834A
:100920008AE0838380E896E9A8E9B0E08483958330
:10093000A683B78380E28187108A118A85E0838B42
:1009400081E0848B85E090E0A0E0B0E0828F938F1F
:10095000A48FB58F8FEB91E09183808312860895E9
:10096000CF93DF9300D01F92CDB7DEB7789484B5D4
:10097000826084BD84B5816084BD85B5826085BD9B
:1009800085B5816085BD80916E00816080936E0029
:10099000109281008091810082608093810080911B
:1009A00081008160809381008091800081608093CC
:1009B00080008091B10084608093B1008091B0008C
:1009C00081608093B00080917A00846080937A0087
:1009D00080917A00826080937A0080917A008160B1
:1009E00080937A0080917A00806880937A001092D8
:1009F000C1001FB7F89480911801811127C0ECE95C
:100A0000F0E08491E0EBF0E09491E82FF0E0EE0F5D
:100A1000FF1FEC58FF4FA591B491EC91E92321F40D
:100A200061E08AE00E94E40061E08AE00E9429011E
:100A30008CB580618CBD8CB580648CBD61E08DE02F
:100A40000E94290161E08BE00E9429018091180138
:100A50008F5F809318011FBF8091C2018F3F09F4FF
:100A60009AC09091C3019F3F09F495C0891741F046
:100A700061E00E94290161E08091C3010E94290187
:100A80008091C2019091C301891719F060E00E9422
:100A9000E40081E00E94120165E070E080E090E0F7
:100AA0000E947F016FE584E00E94340386E00E948B
:100AB000FA0245E550E060E070E04093D6015093C3
:100AC000D7016093D8017093D901682F677D86E0C4
:100AD0000E94340386E00E94FA028DE10E94FA022D
:100AE000182F0E9428038DE10E94FA0291E018134A
:100AF00090E09093D001882341F0181302C00E9427
:100B0000280360E08DE10E9434031092D20160E07E
:100B10008CE10E9434031092D4016FE381E00E94C3
:100B2000340363E082E00E94340380E28093C901D1
:100B300011E16091C901812F0E9434031F5F1731B9
:100B4000C1F763E083E00E94340385E08093D30122
:100B50006CE40E94340360E787E00E94340382EE75
:100B60000E94ED0281EE0E94ED026CE080E00E94A6
:100B7000340380E00E94FA028093CF0181FD0BC014
:100B8000682F62606093CF0180E00E9434038BE1A4
:100B90009EE40197F1F76091D3018AE00E940C0373
:100BA0006091D30180E10E940C03EFE6F0E08491B4
:100BB0006091D3010E940C0382E00E94FA02E9E6F0
:100BC000F0E0E49161E070E001C0660FEA95EAF7B9
:100BD000682B82E00E94340386E00E94FA02887F3C
:100BE000682F636086E00E94340362E086E00E9422
:100BF000290162E087E00E94290162E084E00E940E
:100C0000290162E085E00E94290162E080E00E9403
:100C1000290162E081E00E94290162E088E00E94EF
:100C2000290162E082E10E94290162E083E10E94E1
:100C3000290162E08FE00E942901E0913201F091E8
:100C4000330182E08083E0912E01F0912F01108228
:100C5000E0913001F09131018FEC808310923A01E4
:100C6000E0913601F091370186E08083E091340114
:100C7000F0913501808180618083E0913401F091B1
:100C80003501808188608083E0913401F0913501E5
:100C9000808180688083E0913401F091350180810A
:100CA0008F7D808386E00E94BB004C0187E00E941C
:100CB000BB003C0184E00E94BB002C0185E00E9447
:100CC000BB009B838A8380E00E94BB007C0181E0A3
:100CD0000E94BB008C0188E00E94BB001C0182E1E5
:100CE0000E94BB005C0183E10E94BB006C018FE0AD
:100CF0000E94BB00E114F10491F40115110579F48F
:100D000089E5898361E080E10E94290161E080E159
:100D10000E94E400CE0101960E94470377C0A1140F
:100D2000B10429F4C114D10411F48BE4EACF21E019
:100D300030E08114910411F030E020E041E050E017
:100D40006114710411F050E040E0240F351F41E0C0
:100D500050E04114510411F050E040E0240F351FE1
:100D600041E050E06A817B81672B11F050E040E068
:100D7000240F351F41E050E0E114F10411F050E080
:100D800040E0240F351F41E050E00115110511F03E
:100D900050E040E0240F351F41E050E021143104C1
:100DA00011F050E040E0240F351F41E050E0A11465
:100DB000B10411F050E040E0240F351F41E050E055
:100DC000C114D10411F050E040E0240F351F41E080
:100DD00050E0009711F050E040E0240F351F223022
:100DE00031050CF173E5798361E080E10E9429010E
:100DF00060E080E10E94E400CE0101960E9447037A
:100E000064E670E080E090E00E947F0180E090E086
:100E1000892B09F447CF0E941B02882309F442CF93
:100E20000E9400003FCF892811F486E46ACFAB28E6
:100E300011F48DE466CFCD2811F48EE462CF6728DB
:100E400019F492E499835ECF452819F42CE42983A0
:100E500059CF6A817B81672B19F472E5798352CF70
:100E6000EF2811F481E44DCF012B11F494E4EACF83
:100E7000892B49F42AE5298364EF71E080E090E052
:100E80000E947F013FCF232819F437E53983F4CF3F
:100E900063E5698361E080E10E94290160E037CF6A
:100EA000EE0FFF1F0590F491E02D0994F894FFCF09
:100EB000303030303100000000005102B101DE015D
:080EC0009E020F02ED01010288
:00000001FF
