:100000000C945D010C948E010C948E010C948E0165
:100010000C948E010C948E010C948E010C948E0124
:100020000C948E010C948E010C948E010C948E0114
:100030000C948E010C948E010C948E010C948E0104
:100040000C948E010C94BF080C948E010C948E01BC
:100050000C948E010C948E010C948E010C948B07E1
:100060000C948E010C94FF070C94D5070C948E0110
:100070000C948E010C948E010C948E010C948E01C4
:100080000C9491080C948E010C948E010C948E01AA
:100090000C948E010C948E010C948E010C948E01A4
:1000A0000C948E010C948E010C9463080C948E01B8
:1000B0000C948E010C948E010C948E010C943508D6
:1000C0000C948E010C948E010C948E010C948E0174
:1000D0000C948E010C948E010C948E010C948E0164
:1000E0000C948E010C9483030C94ED020C94AE01DD
:1000F0000C94EE010C94A5060C943D030C94CD01D8
:100100000C94DB010C94D0030C94B8010C943F06C2
:100110000C94B6060C94F3010C94C0010C941A03D1
:100120000C944B060C94E5010C94D3010C94E10162
:100130000C9445060C94E9010C9429030C94780660
:100140000C94B4010C948D060C94C2060C94810698
:100150000C94C9010C94ED080C94F2060C94DA0688
:100160000C94BC010C94E6060C94C3010C94630639
:100170000C94D7010C94CE060C944B030C94EF0115
:100180000C9499060C946F060C9457060A0B0C0DF0
:100190000E0F0001020304050000210024002700C7
:1001A0002A002D0030003300010100000401070186
:1001B0000A0100002200250028002B002E0031003B
:1001C000340002010000050108010B0100002000BD
:1001D0002300260029002C002F003200000100001F
:1001E00003010601090105050505070508080808BA
:1001F000020202020A0A08080404040401010101BF
:1002000001010101030303030303030304070707B9
:100210000C0C0C0C0C0C0C0C02020202060606065E
:10022000060606060B0B0B0B0B0B0B0B010210202B
:10023000200808102040102040800201020108041C
:1002400002010102040810204080804020100804B0
:100250000201800402018040201008040201080409
:10026000020101020408102040800102040810204D
:10027000408000000A0B02090C0D0E080703040160
:10028000000000000000000000000000000000006E
:10029000000000000000000000000000000012113B
:1002A000100000000000000000000000000000003E
:1002B0000000000000000000ED0811241FBECFEF79
:1002C000D1E2DEBFCDBF00E00CBF12E0A0E0B2E0A3
:1002D000E0E8FCE100E00BBF02C007900D92AC31FA
:1002E000B107D9F723E0ACE1B2E001C01D92A93813
:1002F000B207E1F711E0CDE5D1E000E006C02197BB
:100300000109802FFE010E94360ECC35D10780E016
:100310000807A9F70E9499090C943E0E0C9400005E
:100320008150823108F05AC0E82FF0E08827E45667
:10033000FE4F8F4F0C94360EBC01C001AE01B401CC
:10034000B801EE01C301C901CD01D301D701DB0121
:10035000E101E501EE01E901EF01F3018091800087
:100360008F77809380000895809180008F7DF9CFF2
:1003700080918000877FF5CF84B58F7784BD089505
:1003800084B58F7DFBCF8091B0008F778093B000D4
:1003900008958091B0008F7DF9CF809190008F7784
:1003A000809390000895809190008F7DF9CF809187
:1003B0009000877FF5CF8091A0008F778093A00079
:1003C00008958091A0008F7DF9CF8091A000877F54
:1003D000F5CF809120018F7780932001089580913F
:1003E00020018F7DF9CF80912001877FF5CFCF93BA
:1003F000DF93282F30E0F901EE58FD4F8491F90189
:10040000E45DFD4FD491F901EA51FE4FC491CC2334
:10041000A1F081110E949001EC2FF0E0EE0FFF1F80
:10042000E453FE4FA591B491EC91ED2381E090E06F
:1004300009F480E0DF91CF91089580E090E0FACF59
:100440001F93CF93DF93282F30E0F901EE58FD4F33
:100450008491F901E45DFD4FD491F901EA51FE4F19
:10046000C491CC23A9F0162F81110E949001EC2F8A
:10047000F0E0EE0FFF1FEE54FE4FA591B4918FB741
:10048000F894EC91111108C0D095DE23DC938FBF56
:10049000DF91CF911F910895DE2BF8CF682F8091C7
:1004A00068030E94200280917F0390918003823034
:1004B000910538F0880F991F880F991F05970197AC
:1004C000F1F7089581E00C944E02CF93DF9390E012
:1004D000FC01E45DFD4F24918A519E4FFC01849103
:1004E0008823D1F090E0880F991FFC01E856FE4F59
:1004F000A591B491FC01EE54FE4FC591D4916111C8
:100500000EC09FB7F8948C91E22FE0958E238C93C8
:100510002881E223E8839FBFDF91CF9108958FB7B1
:10052000F894EC91E22BEC938FBFF6CF3FB7F894A1
:100530008091320290913302A0913402B091350241
:1005400026B5A89B05C02F3F19F00196A11DB11D2E
:100550003FBFBA2FA92F982F8827BC01CD01620F6A
:10056000711D811D911D42E0660F771F881F991F25
:100570004A95D1F708958F929F92AF92BF92CF92F2
:10058000DF92EF92FF924B015C010E9496026B0199
:100590007C010E9496026C197D098E099F09683EB4
:1005A000734081059105A8F321E0821A9108A10802
:1005B000B10888EEC80E83E0D81EE11CF11C81143E
:1005C0009104A104B10429F7FF90EF90DF90CF9040
:1005D000BF90AF909F908F900895AF92BF92CF92AF
:1005E000DF92EF92FF920F931F93CF93DF936C01F3
:1005F0007B018B01040F151FEB015E01AE18BF08D4
:10060000C017D10759F06991D601ED91FC91019085
:10061000F081E02DC6011995892B79F7C501DF918D
:10062000CF911F910F91FF90EF90DF90CF90BF90EF
:10063000AF900895FC01538D448D252F30E0842F19
:1006400090E0821B930B541710F0CF9608950197FA
:100650000895FC01918D828D981761F0A28DAE0FE7
:10066000BF2FB11D5D968C91928D9F5F9F73928F6E
:1006700090E008958FEF9FEF0895FC01918D828D9A
:10068000981731F0828DE80FF11D858D90E0089567
:100690008FEF9FEF0895FC01918D228D892F90E0BF
:1006A000805C9F4F821B91098F739927089586E381
:1006B00092E00E944B0321E0892B09F420E0822F75
:1006C0000895FC01A48DA80FB92FB11DA35ABF4FE7
:1006D0002C91848D90E001968F739927848FA68941
:1006E000B7892C93A089B1898C91837080648C9395
:1006F000938D848D981306C00288F389E02D808144
:100700008F7D80830895EF92FF920F931F93CF9375
:10071000DF93EC0181E0888F9B8D8C8D98131AC03C
:10072000E889F989808185FF15C09FB7F894EE8923
:10073000FF896083E889F989808183708064808380
:100740009FBF81E090E0DF91CF911F910F91FF90CB
:10075000EF900895F62E0B8D10E00F5F1F4F0F7373
:100760001127E02E8C8D8E110CC00FB607FCFACF2E
:10077000E889F989808185FFF5CFCE010E94610368
:10078000F1CFEB8DEC0FFD2FF11DE35AFF4FF082FF
:100790009FB7F8940B8FEA89FB8980818062CFCF65
:1007A000CF93DF93EC01888D8823B9F0AA89BB89A8
:1007B000E889F9898C9185FD03C0808186FD0DC093
:1007C0000FB607FCF7CF8C9185FFF2CF808185FFB4
:1007D000EDCFCE010E946103E9CFDF91CF91089563
:1007E00080E090E0892B29F00E94570381110E943C
:1007F000000080E090E0892B49F080E090E0892BB8
:1008000029F00E94000081110E94000080E090E029
:10081000892B49F080E090E0892B29F00E940000AC
:1008200081110E94000080E090E0892B49F080E077
:1008300090E0892B29F00E94000081110C940000A7
:100840000895CF92DF92EF92FF92CF93DF93EC0166
:10085000603282E07807CCF5653B710514F064EBFB
:1008600070E0898128E830E0281B310987FD339545
:10087000220F331F220F331F6901330FEE08FF08C9
:100880008A8128E532E0281B310987FD3395220F44
:10089000331F220F331F032E000C440B550B2C1952
:1008A0003D094E095F09DB0177FF02C0B0E0A0E01F
:1008B0000E94F10D24EB30E040E050E00E94C70DB3
:1008C000C20ED31EE41EF51EB601E881E03370F5BA
:1008D000298188E890E0821B910927FD9395880F74
:1008E000991F880F991F681779077CF02A8188E57E
:1008F00092E0821B910927FD9395880F991F880F1D
:10090000991F681779070CF4CB010297880F991F7C
:100910004FB7F8942E2F30E0F901EE0FFF1FE20FD2
:10092000F31FEC52FD4F928381834FBFDF91CF9134
:10093000FF90EF90DF90CF9008951F93CF93DF93B8
:10094000EC01162F8881803308F04EC061E0812FC2
:100950000E9465028881282F30E0F901EE0FFF1F09
:10096000E20FF31FEC52FD4F1F736081607C612B1F
:10097000608319821A822CE0622F0E942A0E829FC5
:10098000B001112430E020E0AB01420F531FFA0107
:10099000EE0FFF1FE40FF51FEC52FD4F908196FD07
:1009A00016C02F5F3F4F2C30310571F7813009F5AC
:1009B0001092800082E08093810010928500109256
:1009C0008400B19A80916F00826080936F00E8810B
:1009D0008E2F90E0FC01EE0FFF1FE80FF91FEC5285
:1009E000FD4F8081806480838881DF91CF911F914A
:1009F0000895823061F410929000809391001092DB
:100A000095001092940088BB80937100E0CF8330F2
:100A100069F41092A00082E08093A1001092A500DA
:100A20001092A40089BB80937200D1CF8111CFCFE7
:100A30001092200182E080932101109225011092F2
:100A400024018ABB80937300C2CFAF92BF92CF9232
:100A5000DF92EF92FF920F931F93CF93DF936B017F
:100A60007A01EC01C35EDD4F28813CE0389F8001B4
:100A7000399F100D1124A0906403B12C27FF1FC0D3
:100A8000FB011182108288818F5F888388819801A1
:100A9000280F311D87FD3A95F6012A153B051CF4F8
:100AA00088818C30C4F180819181049680349C4986
:100AB00008F473C0F60180819181049670C088812A
:100AC0009801280F311D87FD3A952A153B05DCF664
:100AD0008881A801480F511D87FD5A95FA01EE0F34
:100AE000FF1FE40FF51FEC52FD4F808186FFCBCF37
:100AF0008881F801E80FF11D87FDFA95CF01EE0F0F
:100B0000FF1FE80FF91FEC52FD4F808160E08F73EB
:100B10000E942002B8CF808191812881A801420FD4
:100B2000511D27FD5A959A01FA01EE0FFF1FE20FA2
:100B3000F31FEC52FD4F21813281820F931FF70189
:100B40009183808388819801280F311D87FD3A9514
:100B5000F901EE0FFF1FE20FF31FEC52FD4F8081F2
:100B600086FF22C08881080F111D87FD1A95F801A4
:100B7000EE0FFF1FE00FF11FEC52FD4F808161E08F
:100B80008F73DF91CF911F910F91FF90EF90DF90C6
:100B9000CF90BF90AF900C94200280E49CE9F701C5
:100BA000918380838FEF8883DF91CF911F910F9185
:100BB000FF90EF90DF90CF90BF90AF9008958EBDE3
:100BC00000000DB407FEFDCF8EB50895CF93CFB7CB
:100BD000F89480911C02811127C0EBE1F2E084912E
:100BE000E1E6F2E09491E82FF0E0EE0FFF1FE85607
:100BF000FE4FA591B491EC91E92321F461E085E3E6
:100C00000E94200261E085E30E9465028CB580614C
:100C10008CBD8CB580648CBD61E084E30E9465026C
:100C200061E083E30E94650280911C028F5F8093E4
:100C30001C02CFBFCF910895982FE82FF0E0EE5817
:100C4000FD4FE491E150E23108F0CCC0F0E088279C
:100C5000E35DF94F8F4F0C94360E3F0645064B0669
:100C600057066306F2066F06780681068D0699061A
:100C7000A506B606C206F206CE06DA06E60684B574
:100C8000806884BD8BE987BD089584B5806284BD8A
:100C90008BE988BD089580918000806880938000F2
:100CA0008BE990E09093890080938800089580916B
:100CB00080008062809380008BE990E090938B00AD
:100CC00080938A00089580918000886080938000DE
:100CD0008BE990E090938D0080938C000895809133
:100CE000B00080688093B0008BE98093B3000895D2
:100CF0008091B00080628093B0008BE98093B40053
:100D00000895809190008068809390008BE990E036
:100D1000909399008093980008958091900080624C
:100D2000809390008BE990E090939B0080939A00D1
:100D30000895809190008860809390008BE990E006
:100D400090939D0080939C0008958091A0008068FE
:100D50008093A0008091A0008F7B8093A0008BE9FE
:100D600090E09093A9008093A80008958091A0003E
:100D700080628093A0008BE990E09093AB00809319
:100D8000AA0008958091A00088608093A0008BE95C
:100D900090E09093AD008093AC0008958091200185
:100DA0008068809320018BE990E0909329018093E3
:100DB00028010895809120018062809320018BE9B1
:100DC00090E090932B0180932A0108958091200157
:100DD0008860809320018BE990E090932D018093AF
:100DE0002C01089561E0892F0C9420020F931F932A
:100DF0000091690310916A0320916B0330916C0399
:100E000040E052E16AE770E080E00417150726072A
:100E1000370740F476956795579547958F5F8630ED
:100E2000A1F787E0982F906A9695809581709CBD78
:100E30008DBD80E01F910F910C944E02CF93C82F6F
:100E40000E94F6068C2F80620E94DF0580936D035E
:100E5000CF910C946202CF93DF93D82FC62F0E94BC
:100E6000F6068D2F80620E94DF0580936D038C2F24
:100E70000E94DF05DF91CF910C94620260917403B0
:100E800061FD0AC062606093740380E00E942B07DA
:100E90008BE19EE40197F1F70895CF93C82F0E944C
:100EA000F6068C2F0E94DF0580936D038FEF0E9462
:100EB000DF05C82F0E9462028C2FCF910895FF9208
:100EC0000F931F93CF93DF93C82FF62E072F142F66
:100ED0000E94F6068C2F80620E94DF0580936D03CE
:100EE000CF2DD02F115020F089910E94DF05FACF2D
:100EF000DF91CF911F910F91FF900C9462020E949D
:100F0000F60680E50E94DF0580936D0383E70E946B
:100F1000DF050C9462021F920F920FB60F921124FC
:100F20002F933F938F939F93AF93BF9380912E0204
:100F300090912F02A0913002B091310230912D0298
:100F400023E0230F2D3758F50196A11DB11D2093E5
:100F50002D0280932E0290932F02A0933002B09323
:100F600031028091320290913302A0913402B0910B
:100F700035020196A11DB11D809332029093330278
:100F8000A0933402B0933502BF91AF919F918F919E
:100F90003F912F910F900FBE0F901F90189526E84C
:100FA000230F0296A11DB11DD2CF1F920F920FB633
:100FB0000F9211240BB60F922F933F934F935F9391
:100FC0006F937F938F939F93AF93BF93EF93FF9311
:100FD00086E392E00E946103FF91EF91BF91AF9190
:100FE0009F918F917F916F915F914F913F912F9141
:100FF0000F900BBE0F900FBE0F901F9018951F9271
:101000000F920FB60F9211240BB60F922F938F935E
:101010009F93EF93FF93E0914602F0914702808106
:10102000E0914C02F0914D0282FD1DC090818091B3
:101030004F028F5F8F7320915002821741F0E09131
:101040004F02F0E0EA5CFD4F958F80934F02FF91D5
:10105000EF919F918F912F910F900BBE0F900FBE2C
:101060000F901F9018958081F2CF1F920F920FB6AC
:101070000F9211240BB60F922F933F934F935F93D0
:101080006F937F938F939F93AF93BF93EF93FF9350
:1010900048E251E064E271E090E080E00E942505C2
:1010A000FF91EF91BF91AF919F918F917F916F9140
:1010B0005F914F913F912F910F900BBE0F900FBEFC
:1010C0000F901F9018951F920F920FB60F92112438
:1010D0000BB60F922F933F934F935F936F937F9332
:1010E0008F939F93AF93BF93EF93FF9348EA50E0A2
:1010F00064EA70E083E090E00E942505FF91EF91A3
:10110000BF91AF919F918F917F916F915F914F911F
:101110003F912F910F900BBE0F900FBE0F901F901D
:1011200018951F920F920FB60F9211240BB60F92C3
:101130002F933F934F935F936F937F938F939F93DF
:10114000AF93BF93EF93FF9348E950E064E970E0F9
:1011500082E090E00E942505FF91EF91BF91AF9151
:101160009F918F917F916F915F914F913F912F91BF
:101170000F900BBE0F900FBE0F901F9018951F92EF
:101180000F920FB60F9211240BB60F922F933F932D
:101190004F935F936F937F938F939F93AF93BF937F
:1011A000EF93FF9348E850E064E870E081E090E05E
:1011B0000E942505FF91EF91BF91AF919F918F9173
:1011C0007F916F915F914F913F912F910F900BBE47
:1011D0000F900FBE0F901F90189510923902109229
:1011E000380288EE93E0A0E0B0E080933A0290935A
:1011F0003B02A0933C02B0933D028EE092E09093BC
:1012000037028093360285EC90E0909343028093FE
:10121000420284EC90E0909345028093440280EC7B
:1012200090E0909347028093460281EC90E0909387
:1012300049028093480282EC90E090934B028093A5
:101240004A0286EC90E090934D0280934C021092FB
:101250004F0210925002109251021092520280914D
:101260006403803308F05DC091E0980F90936403AD
:101270008093860390E0FC01EE0FFF1FE80FF91F3B
:10128000EC52FD4F88EB9BE0928381838091640355
:10129000803308F04AC091E0980F909364038093E4
:1012A000830390E0FC01EE0FFF1FE80FF91FEC52E3
:1012B000FD4F88EB9BE09283818382E080936703FC
:1012C00083E08093680380E896E9A8E9B0E0809322
:1012D000690390936A03A0936B03B0936C0380E25D
:1012E00080936E03109275031092760385E08093CD
:1012F000780381E08093790385E090E0A0E0B0E09E
:1013000080937F0390938003A0938103B093820323
:1013100083ED92E0909366038093650310926F03D0
:1013200008958FEF80938603B1CF8FEF809383036F
:10133000C4CF789484B5826084BD84B5816084BD57
:1013400085B5826085BD85B5816085BD80916E0063
:10135000816080936E001092810080918100826094
:1013600080938100809181008160809381008091D1
:1013700080008160809380008091B10084608093C0
:10138000B1008091B00081608093B00080919100A5
:1013900082608093910080919100816080939100A0
:1013A000809190008160809390008091A100826084
:1013B0008093A1008091A10081608093A100809121
:1013C000A00081608093A0008091210182608093C1
:1013D0002101809121018160809321018091200170
:1013E00081608093200180917A00846080937A00EC
:1013F00080917A00826080937A0080917A00816087
:1014000080937A0080917A00806880937A001092AD
:10141000C1000E94E605809167038F3F09F48FC0E9
:10142000909168039F3F09F48AC0891741F061E0F9
:101430000E94650261E0809168030E9465028091CC
:10144000670390916803891719F060E00E942002F9
:1014500081E00E944E0265E070E080E090E00E9432
:10146000BB026FE584E00E942B0786E00E944D07D7
:1014700045E550E060E070E040937B0350937C03CF
:1014800060937D0370937E03682F677D86E00E94E2
:101490002B0786E00E944D078DE10E944D07D82F53
:1014A0000E947F078DE10E944D0791E0D81390E0E4
:1014B00090937503882341F0D81302C00E947F07E0
:1014C00060E08DE10E942B071092770360E08CE1D1
:1014D0000E942B07109279036FE381E00E942B0793
:1014E00063E082E00E942B0780E280936E03D1E1EB
:1014F00060916E038D2F0E942B07DF5FD731C1F7FC
:1015000063E083E00E942B0785E0809378036CE41E
:101510000E942B0760E787E00E942B0782EE0E9463
:101520001E0781EE0E941E076CE080E00E942B07E0
:1015300080E00E944D07809374030E943E07EDE80F
:10154000F1E084914091780364E072E00E945F07CB
:1015500082E00E944D07E3E9F1E0E49161E070E090
:1015600001C0660FEA95EAF7682B82E00E942B071C
:1015700086E00E944D07887F682F636086E00E94A6
:101580002B070E943E0760917403616060937403AF
:1015900080E00E942B0760E787E00E942B07809184
:1015A000670390916803891719F061E00E94200297
:1015B00080917603882309F423C1409178036FE674
:1015C00073E08AE00E945F0765E070E086E893E0E0
:1015D0000E949D046AE570E086E893E00E94210481
:1015E00066E070E083E893E00E949D046AE570E0A5
:1015F00083E893E00E942104D6E161E08D2F0E94F0
:101600006502DF5FD932C9F761E089E00E946502B7
:1016100061E088E00E94650261E08BE00E94650263
:1016200061E08AE00E94650261E08CE00E94650250
:1016300061E08DE00E94650261E087E00E94650242
:1016400060E08AE20E94650260E08BE20E9465022F
:10165000609100027091010286E893E00E942104EB
:1016600061E08CE00E9465028CE00E941C0661E053
:101670008DE00E9465028DE00E941C0661E087E01B
:101680000E94200261E088E20E942002E09146026E
:10169000F091470282E08083E0914202F0914302A0
:1016A0001082E0914402F09145028FEC8083109209
:1016B0004E02E0914A02F0914B0286E08083E09175
:1016C0004802F0914902808180618083E091480264
:1016D000F0914902808188608083E0914802F09116
:1016E0004902808180688083E0914802F09149023C
:1016F00080818F7D80830E94E6058DE2E82EF12CAB
:1017000001E010E097E8C92ED12C2AE5A22EB12CD9
:1017100080912B0290912C02892B09F04AC08AE219
:101720000E94F701892B01F561E089E10E94200206
:101730008091290290912A02892BB1F460E087E020
:101740000E94200261E08AE10E942002D0920302FE
:10175000C092020267E870E086E893E00E942104EC
:1017600010932C0200932B028BE20E94F701892B2D
:1017700001F561E089E10E942002809129029091A7
:101780002A02892BB1F460E087E00E94200261E028
:101790008AE10E942002F0920302E09202026DE2CE
:1017A00070E086E893E00E94210410932C020093DD
:1017B0002B0287E10E944D0780FDCEC08091790306
:1017C000D0E099249394811108C0D0916E039D2E8E
:1017D000DD2311F099249394D9190E94F60681E62D
:1017E0000E94DF0580936D03992021F08FEF0E9406
:1017F000DF05C82FD150C8F08FEF0E94DF05FACF68
:1018000082E00E944D07E2E9F1E0E49121E030E05E
:1018100001C0220FEA95EAF72095622F682382E043
:101820000E942B0710927603CFCE0E94620260E4E2
:1018300087E00E942B07C634B1F461E089E00E9482
:10184000200261E08BE00E94200260E088E00E94BC
:10185000200260E08AE00E94200261E086E10E94AE
:10186000200261E03AC0C23409F560E089E00E94DC
:10187000200260E08BE00E94200261E088E00E948C
:10188000200261E08AE00E94200260E086E10E947E
:10189000200260E087E10E94200261E088E10E946E
:1018A000200261E08EE10E94200256C0CC34D1F4C7
:1018B00060E089E00E94200261E08BE00E9420024B
:1018C00061E088E00E94200260E08AE00E9420023D
:1018D00061E086E10E94200260E087E10E94200230
:1018E00060E0DCCFC23591F461E089E00E94200223
:1018F00060E08BE00E94200260E088E00E9420020D
:1019000061E08AE00E94200260E0A8CFC13439F58E
:1019100010922C0210922B0261E08EE10E942002B4
:1019200061E08BE10E942002809000029090010211
:1019300097FC12C081E0881A91089092010280926F
:1019400000026AE070E080E090E00E94BB02B40117
:1019500086E893E00E9421040E94F003D9CEC434AB
:10196000C1F410922C0210922B0261E08CE10E94D3
:10197000200261E08EE10E9420028090000290909F
:10198000010285EB881691043CF78FEF881A980ABC
:10199000D4CFCD34D9F461E08EE10E942002809052
:1019A00002029090030297FCD7CF81E0881A910839
:1019B00090920302809202026AE070E080E090E080
:1019C0000E94BB02B40183E893E0C4CFCE34A9F4F3
:1019D00010922C0210922B0261E08EE10E942002F4
:1019E000809002029090030285EB881691040CF01F
:1019F000B3CF8FEF881A980ADBCFC93559F410920C
:101A00002C0210922B0261E08EE10E94200260E025
:101A100089E149CFCB3489F461E08EE10E94200254
:101A2000B0920302A09202026AE070E080E090E0CF
:101A30000E94BB026AE570E0C6CFC33509F05CC006
:101A400060E089E00E94200260E08BE00E942002BA
:101A500060E088E00E94200260E08AE00E942002AC
:101A600061E086E10E94200261E087E10E9420029D
:101A700060E08EE10E9420022FB7F89480912E0240
:101A800090912F02A0913002B09131022FBF40916E
:101A900025025091260260912702709128023C0194
:101AA0004D01641A750A860A970AB401A301483CDD
:101AB00051056105710508F44FCF8093250290937D
:101AC0002602A0932702B0932802809123029091CE
:101AD0002402892B61F41093240200932302D091F5
:101AE00023026D2F88E10E9420026D2FDBCE109221
:101AF000240210922302F3CFC73539F580902902D2
:101B000090902A02D1E08114910409F0D0E08D2F49
:101B100090E090932A028093290261E08EE10E9476
:101B2000200262E370E080E090E00E94BB0261E08E
:101B30008BE10E9420026D2F8AE10E94200261E069
:101B4000892809F460E087E0AECECA3509F004CFF9
:101B5000809021029090220281E090E08114910413
:101B600011F090E080E0909322028093210261E0E6
:101B70008EE10E94200262E370E080E090E00E942B
:101B8000BB0261E0892809F460E088E28CCE052E72
:101B900097FB1EF400940E94DE0D57FD07D00E94B3
:101BA000F90D07FC03D04EF40C94DE0D50954095D2
:101BB000309521953F4F4F4F5F4F089590958095F9
:101BC000709561957F4F8F4F9F4F08950E941B0E18
:101BD000A59F900DB49F900DA49F800D911D112481
:101BE0000895B7FF0C94E60D0E94E60D821B930B3F
:101BF0000895A1E21A2EAA1BBB1BFD010DC0AA1F4E
:101C0000BB1FEE1FFF1FA217B307E407F50720F065
:101C1000A21BB30BE40BF50B661F771F881F991FE0
:101C20001A9469F760957095809590959B01AC0129
:101C3000BD01CF010895A29FB001B39FC001A39F32
:101C4000700D811D1124911DB29F700D811D1124F5
:101C5000911D0895991B79E004C0991F961708F00B
:101C6000961B881F7A95C9F780950895EE0FFF1F80
:101C7000881F8BBF0790F691E02D1994F894FFCF41
:101C80005A005A0030303030310000000000830329
:0C1C9000ED021A03D0034B0329033D03AF
:00000001FF
